:020000040800F2
:10000000FFFF02201D1700086D1700086D1700087C
:100010006D1700086D1700086D170008000000003C
:100020000000000000000000000000006D17000844
:100030006D170008000000006D1700086D1700081C
:100040006D1700086D1700086D1700086D17000880
:100050006D1700086D1700086D1700086D17000870
:100060006D1700086D1700086D1700086D17000860
:100070006D1700086D1700086D1700089913000828
:100080000D1400086D1700086D1700086D170008A3
:100090006D1700086D1700086D1700086D17000830
:1000A0006D1700086D1700086D1700086D17000820
:1000B0006D1700086D1700086D1700082913000858
:1000C0006D1700086D1700086D1700086D17000800
:1000D0006D1700086D1700086D1700086D170008F0
:1000E0006D1700086D1700086D1700086D170008E0
:1000F0006D1700086D1700086D1700086D170008D0
:100100006D1700086D1700086D1700086D170008BF
:100110006D1700086D1700086D1700086D170008AF
:100120006D1700086D1700086D1700086D1700089F
:100130006D1700086D1700086D1700086D1700088F
:100140006D1700086D1700086D1700086D1700087F
:100150006D1700086D1700086D1700086D1700086F
:100160006D1700086D1700086D1700086D1700085F
:100170006D1700086D1700086D17000800000000DB
:100180006D1700086D1700086D1700086D1700083F
:100190006D1700086D1700086D1700086D1700082F
:0C01A0006D1700086D1700086D170008AF
:1001AC0010B5054C237833B9044B13B10448AFF3A5
:1001BC0000800123237010BD4804002000000000C3
:1001CC0070170008084B10B51BB108480849AFF36D
:1001DC0000800848036803B910BD074B002BFBD007
:1001EC00BDE81040184700BF000000007017000861
:1001FC004C040020480400200000000080B584B0AE
:10020C0000AFF860B9607A603B60786801F00EF876
:10021C007B681B68BA685200032101FA02F2D243D0
:10022C001A407B681A607B681B68BA685200F968D0
:10023C0001FA02F21A437B681A607B685B68012141
:10024C00BA6801FA02F21A437B685A607B689B68B1
:10025C00BA685200032101FA02F2D2431A407B68B9
:10026C009A607B689B68BA685200022101FA02F21C
:10027C001A437B689A607B68DB68BA68520003217A
:10028C0001FA02F2D2431A407B68DA607B68DB68C1
:10029C00BA685200396801FA02F21A437B68DA60D4
:1002AC001037BD4680BD00BF80B485B000AFF8608C
:1002BC00B9607A60FB681B6ABA6892000F2101FA78
:1002CC0002F2D2431A40FB681A62FB681B6ABA68D6
:1002DC009200796801FA02F21A43FB681A62143729
:1002EC00BD465DF8047B704780B485B000AFF86004
:1002FC00B9607A60FB685B6ABA68083A92000F21B1
:10030C0001FA02F2D2431A40FB685A62FB685B6A3C
:10031C00BA68083A9200796801FA02F21A43FB684B
:10032C005A621437BD465DF8047B704780B584B0C3
:10033C0000AFF860B9607A60B86800F077FFBB680E
:10034C001B68FA685200032101FA02F2D2431A40E8
:10035C00BB681A60BB681A68BB681A60BB685B68CC
:10036C000121FA6801FA02F2D2431A40BB685A60C2
:10037C00BB689B68FA685200032101FA02F2D2436F
:10038C001A40BB689A60BB689B68FA6852000221ED
:10039C0001FA02F21A43BB689A60BB68DB68FA6820
:1003AC005200032101FA02F2D2431A40BB68DA6010
:1003BC00BB68DB68FA685200796801FA02F21A43EA
:1003CC00BB68DA601037BD4680BD00BF80B588B011
:1003DC0000AFF860B9607A6000F084FFFB681B6FB7
:1003EC0023F00102FB681A67FB681B6FFB61FB685B
:1003FC001B6F43F4413343F40073FA681367FB68D3
:10040C001B6FBB61FB681B6F23F0C062FB681A6734
:10041C00FB681B6FBA6852061A43FB681A67FB68C5
:10042C001B6F23F0C002FB681A67FB681B6F7A68AE
:10043C0092011A43FB681A67FB681B6F23F4C042D6
:10044C00FB681A67FB681A6FFB681A67FB681B6FFF
:10045C0023F4C052FB681A67FB681A6FFB681A67B3
:10046C00FB681B6F23F48062FB681A67FB681B6FC9
:10047C0043F48062FB681A67FB681B6F23F40072FD
:10048C00FB681A67FB681A6FFB681A67FB681B6FBF
:10049C0023F08072FB681A67FB681A6FFB681A6797
:1004AC00FB681B6F23F48002FB681A67FB681A6FEA
:1004BC00FB681A67FB681B6F7B61FB680022C3F843
:1004CC008420FB681B6F23F01E02FB681A67FB6815
:1004DC001B6F43F01E02FB681A67FB681B6F3B61C6
:1004EC002037BD4680BD00BF80B483B000AF7860BC
:1004FC007B681B6823F4C0627B681A607B681B688E
:10050C0043F4C0627B681A600C37BD465DF8047B0F
:10051C00704700BF80B487B000AFF860B9607A60F4
:10052C003B60FB687A689A67FB68BA68DA673A6876
:10053C00FB685A67FB681B6F7B611C37BD465DF817
:10054C00047B704780B485B000AFF860B9607A6006
:10055C003B60FB687A689A60FB68BA68DA603A6854
:10056C00FB685A601437BD465DF8047B704700BFCA
:10057C0080B588B000AFF860B9607A6000F0B2FE68
:10058C00FB681B6823F00102FB681A60FB681B68A0
:10059C00FB61FB681B6843F4413343F40073FA6856
:1005AC001360FB681B68BB61FB681B6823F0C062AF
:1005BC00FB681A60FB681B68BA6852061A43FB6832
:1005CC001A60FB681B6823F0C002FB681A60FB68AA
:1005DC001B687A6892011A43FB681A60FB681B68F7
:1005EC0023F4C042FB681A60FB681A68FB681A6047
:1005FC00FB681B6823F4C052FB681A60FB681A681E
:10060C00FB681A60FB681B6823F48062FB681A6045
:10061C00FB681B6843F48062FB681A60FB681B680C
:10062C0023F40072FB681A60FB681A68FB681A6096
:10063C00FB681B6823F08072FB681A60FB681A6801
:10064C00FB681A60FB681B6823F48002FB681A6065
:10065C00FB681A68FB681A60FB681B687B61FB68A7
:10066C0000225A61FB681B6823F01E02FB681A60AB
:10067C00FB681B6843F01E02FB681A60FB681B6872
:10068C003B612037BD4680BD80B483B000AF78603D
:10069C007B681B6843F001027B681A600C37BD460F
:1006AC005DF8047B704700BF80B485B000AF786004
:1006BC0039607B685A683B6822FA03F303F0010344
:1006CC00FB600AE07B685A683B6822FA03F303F08C
:1006DC000103FB607B68DB68FB60FB68002BF1D0DF
:1006EC007B68DB6801213A6801FA02F21A437B68E5
:1006FC00DA601437BD465DF8047B704780B485B072
:10070C0000AF78607B681B6823F400427B681A603A
:10071C007B681B6823F080027B681A607B681B680F
:10072C00FB607B685B6823F03F027B685A607B68E8
:10073C005B6843F002027B685A607B68DB6923F4D8
:10074C0000427B68DA617B68DB6923F47F6323F00A
:10075C000F037A68D3617B68DB6943F480727B6832
:10076C00DA617B681B6A23F03F027B681A627B6844
:10077C001B6A43F002027B681A627B685B6A43F077
:10078C0010027B685A627B685B6A23F00F027B68FD
:10079C005A627B685B6A43F001027B685A627B6831
:1007AC001B6843F001027B681A607B681B6843F48A
:1007BC0080627B681A607B681B68FB607B689B6847
:1007CC00FB601437BD465DF8047B704780B483B082
:1007DC0000AF78607B685B6843F400627B685A60AA
:1007EC000C37BD465DF8047B704700BF80B487B002
:1007FC0000AFF860B9607A607B68002B11D0FB68A1
:10080C009B6843F40042FB689A60FB689B6823F486
:10081C007F7323F00303FA689360BA68FB689A60ED
:10082C0012E0FB689B6823F40042FB689A60FB684B
:10083C009B6823F0FE02FB689A60FB689B68BA68B1
:10084C0052001A43FB689A60FB689B687B611C37FB
:10085C00BD465DF8047B704780B489B000AF78600A
:10086C0039607B685A693B6822FA03F303F0010391
:10087C00FB617B685B69BB617B689B697B61064B39
:10088C005B693B61044B9B69FB60FB691846243731
:10089C00BD465DF8047B70470054004080B485B0C1
:1008AC0000AF786039607B689A693B6822FA03F381
:1008BC0003F00103FB607B689B69BB60FB68184617
:1008CC001437BD465DF8047B704700BF80B582B01D
:1008DC0000AF7860396000BF38680721FFF7BCFFB4
:1008EC000346002BF8D07A683B681A610837BD467E
:1008FC0080BD00BF80B582B000AF786000BF786863
:10090C000621FFF7A9FF0346002BF8D07B681B6973
:10091C00DBB218460837BD4680BD00BF80B582B03B
:10092C0000AF78607B681B6843F480727B681A6048
:10093C007B685B6843F400627B685A6000BF786830
:10094C000021FFF789FF0346002BF8D00837BD467E
:10095C0080BD00BF80B584B000AF786039603B6863
:10096C009B11FB60FB689B0043F0F103BB60BA6812
:10097C007B681A6100BF78680121FFF76DFF0346A1
:10098C00002BF8D01037BD4680BD00BF80B58CB0B1
:10099C0000AFF860B9607A603B607B68012B21D1B5
:1009AC00BB689B11FB62FB6A9B0043F0F003BB62CC
:1009BC00BB68DBB27B62BA6AFB681A6100BFF8687D
:1009CC000321FFF749FF0346002BF8D07A6AFB6836
:1009DC001A6100BFF8680121FFF73EFF0346002BA8
:1009EC00F8D01EE0BB685A003B6813433B62F868C2
:1009FC000121FFF731FF0346012B0FD1FB68692260
:100A0C001A61FB685B69FB61FB689B69BB61064B08
:100A1C005B697B61044B9B693B6102E03A6AFB6852
:100A2C001A613037BD4680BD0054004080B483B09D
:100A3C0000AF78607B681B6823F480627B681A6067
:100A4C000C37BD465DF8047B704700BF80B483B0A3
:100A5C0000AF78607B681B6843F400727B681A6097
:100A6C000C37BD465DF8047B704700BF80B485B081
:100A7C0000AF78607B6803F00703FB600C4BDB680E
:100A8C00BB60BA684FF6FF031340BB60FB681A02E9
:100A9C00BB68134343F0BF6343F40033BB60044AA9
:100AAC00BB68D3601437BD465DF8047B704700BF4C
:100ABC0000ED00E080B400AF044BDB6803F4E063AE
:100ACC001B0A1846BD465DF8047B704700ED00E03C
:100ADC0080B483B000AF0346FB71084997F9073027
:100AEC005B09FA7902F01F02012000FA02F241F8C8
:100AFC0023200C37BD465DF8047B704700E100E015
:100B0C0080B483B000AF0346FB71094997F90730F5
:100B1C005B09FA7902F01F02012000FA02F220337D
:100B2C0041F823200C37BD465DF8047B704700BFAD
:100B3C0000E100E080B483B000AF0346FB710C4AC7
:100B4C0097F907305B09403352F82330FA7902F0F9
:100B5C001F02012101FA02F21340002B01D00123E4
:100B6C0000E0002318460C37BD465DF8047B704747
:100B7C0000E100E080B483B000AF0346FB7109498B
:100B8C0097F907305B09FA7902F01F02012000FA8D
:100B9C0002F2403341F823200C37BD465DF8047B4C
:100BAC00704700BF00E100E080B483B000AF0346A3
:100BBC00FB71094997F907305B09FA7902F01F02BA
:100BCC00012000FA02F2603341F823200C37BD46B5
:100BDC005DF8047B704700BF00E100E080B483B097
:100BEC0000AF0346FB710C4A97F907305B09803361
:100BFC0052F82330FA7902F01F02012101FA02F2B5
:100C0C001340002B01D0012300E0002318460C37C1
:100C1C00BD465DF8047B704700E100E080B483B012
:100C2C0000AF03463960FB7197F90730002B0BDAE4
:100C3C000D49FB7903F00F03043B3A68D2B2120161
:100C4C00D2B20B441A7609E0084997F907303A6892
:100C5C00D2B21201D2B20B4483F800230C37BD463A
:100C6C005DF8047B704700BF00ED00E000E100E0A0
:100C7C0080B483B000AF0346FB7197F90730002BAB
:100C8C000ADA0D4AFB7903F00F03043B13441B7E75
:100C9C00DBB21B09DBB208E0084A97F907301344B2
:100CAC0093F80033DBB21B09DBB218460C37BD4698
:100CBC005DF8047B704700BF00ED00E000E100E050
:100CCC0080B489B000AFF860B9607A60FB6803F05B
:100CDC000703FB61FB69C3F10703042B28BF042343
:100CEC00BB61FB690433062B02D9FB69033B00E0B3
:100CFC0000237B61BB69012202FA03F3013B1A4614
:100D0C00BB681A407B699A407B69012101FA03F3A5
:100D1C00013B19467B680B40134318462437BD46EC
:100D2C005DF8047B704700BF80B489B000AFF860F9
:100D3C00B9607A603B60BB6803F00703FB61FB6939
:100D4C00C3F10703042B28BF0423BB61FB690433E5
:100D5C00062B02D9FB69033B00E000237B617B6916
:100D6C00FA6822FA03F3BA69012101FA02F2013A94
:100D7C001A407B681A607B69012202FA03F3013B7B
:100D8C001A46FB681A403B681A602437BD465DF86A
:100D9C00047B704780B400AFBFF34F8F0549054B00
:100DAC00DB6803F4E062044B1343CB60BFF34F8F5B
:100DBC00FEE700BF00ED00E00400FA0580B582B04C
:100DCC0000AF78607B68013BB3F1807F01D30123D6
:100DDC000FE00A4A7B68013B53604FF0FF300F2154
:100DEC00FFF71CFF054B00229A60044B07221A6088
:100DFC00002318460837BD4680BD00BF10E000E058
:100E0C0080B582B000AF78607868FFF72FFE0837A6
:100E1C00BD4680BD80B586B000AF0346B9607A6030
:100E2C00FB7300237B61FFF745FE78617869B96835
:100E3C007A68FFF745FF024697F90F3018461146BE
:100E4C00FFF7ECFE1837BD4680BD00BF80B582B001
:100E5C0000AF0346FB7197F907301846FFF738FED1
:100E6C000837BD4680BD00BF80B582B000AF0346D9
:100E7C00FB7197F907301846FFF742FE0837BD465D
:100E8C0080BD00BF80B500AFFFF784FF80BD00BF01
:100E9C0080B582B000AF78607868FFF78FFF0346AB
:100EAC0018460837BD4680BD80B500AFFFF702FE7F
:100EBC000346184680BD00BF80B584B000AFB96052
:100ECC007A603B600346FB7397F90F301846FFF7C7
:100EDC00CFFE03461846B9687A683B68FFF724FFD3
:100EEC001037BD4680BD00BF80B582B000AF034651
:100EFC00FB7197F907301846FFF73CFE0837BD46E3
:100F0C0080BD00BF80B582B000AF0346FB7197F97E
:100F1C0007301846FFF70EFE034618460837BD4645
:100F2C0080BD00BF80B582B000AF0346FB7197F95E
:100F3C0007301846FFF738FE0837BD4680BD00BFA6
:100F4C0080B582B000AF0346FB7197F907301846A5
:100F5C00FFF744FE034618460837BD4680BD00BF68
:100F6C0080B483B000AF78607B68042B06D1094A4B
:100F7C00084B1B6843F00403136005E0054A054B5E
:100F8C001B6823F0040313600C37BD465DF8047B2B
:100F9C00704700BF10E000E080B500AF00F002F831
:100FAC0080BD00BF80B400AFBD465DF8047B7047C8
:100FBC0080B500AF114A114B1B6843F0010313605D
:100FCC000E4B00229A600D4A0C4B1B6823F0847365
:100FDC0023F480331360094B094A5A60074A074BC4
:100FEC001B6823F480231360044B0022DA6000F0AA
:100FFC0087F8044B4FF000629A6080BD00380240C5
:10100C001030002400ED00E080B487B000AF002366
:10101C003B6100237B610223FB600023BB60022346
:10102C007B60324B9B6803F00C033B613B69042BE8
:10103C0007D0082B09D0002B3FD12D4B2D4A1A601D
:10104C003FE02B4B2C4A1A603BE0284B5B6803F4C7
:10105C0080039B0DBB60254B5B6803F03F037B60FB
:10106C00BB68002B0DD0244A7B68B2FBF3F21F4BFC
:10107C00596847F6C0730B409B0903FB02F37B6175
:10108C000CE01C4A7B68B2FBF3F2184B596847F62C
:10109C00C0730B409B0903FB02F37B61134B5B6832
:1010AC0003F440331B0C01335B00FB607A69FB6873
:1010BC00B2FBF3F30E4A136003E00D4B0D4A1A60BA
:1010CC0000BF0A4B9B6803F0F0031B090B4AD35C6F
:1010DC00DBB23B61064B1A683B6922FA03F3044A04
:1010EC0013601C37BD465DF8047B70470038024026
:1010FC00000000200024F40000127A0004000020FC
:10110C0080B483B000AF00237B6000233B60434A74
:10111C00424B1B6843F480331360404B1B6803F451
:10112C0000333B607B6801337B603B68002B04D150
:10113C007B6841F288329342EFD1384B1B6803F441
:10114C000033002B02D001233B6001E000233B6005
:10115C003B68012B5CD1314A304B1B6C43F0805304
:10116C0013642F4A2E4B1B6843F4404313602B4AE5
:10117C002A4B9B689360294A284B9B6843F4004395
:10118C009360264A254B9B6843F4A0539360234BF2
:10119C00244A5A60214A214B1B6843F08073136028
:1011AC0000BF1E4B1B6803F00073002BF9D01C4AC8
:1011BC001B4B1B6843F48033136000BF184B5B68F8
:1011CC0003F48033002BF9D0154A154B1B6843F4FC
:1011DC000033136000BF124B5B6803F40033002B29
:1011EC00F9D0114B40F205721A600C4A0B4B9B68FC
:1011FC0023F003039360094A084B9B6843F00203F6
:10120C00936000BF054B9B6803F00C03082BF9D1CE
:10121C000C37BD465DF8047B704700BF00380240B8
:10122C0000700040085A4007003C024080B485B072
:10123C0000AF78607B6803F13F4303F57E03002B1E
:10124C0001DA03F2FF339B12FB600C490B4B1B6959
:10125C000120FA6800FA02F2D24313400B610749ED
:10126C00064B1B6B0120FA6800FA02F213430B6366
:10127C001437BD465DF8047B704700BF0038024050
:10128C0080B483B000AF164A154B1B6A23F40013CD
:10129C001362134A124B1B6C43F400131364104A71
:1012AC000F4B1B6A23F4800313620D4A0C4B1B6C0F
:1012BC0043F4800313640A4A094B1B6A23F40003AA
:1012CC001362074A064B1B6C43F400031364044B74
:1012DC001B6C7B600C37BD465DF8047B704700BF10
:1012EC000038024080B483B000AF0B4A0A4B1B6934
:1012FC0023F400131361084B1B697B60064A064BF1
:10130C001B6B43F400131363034B1B6B3B600C37D9
:10131C00BD465DF8047B70470038024080B584B050
:10132C0000AF194B5B699B0903F00103002B05D03F
:10133C001548FFF7DFFA0346FB6022E0124B5B69AE
:10134C005B0803F00103002B06D00F4B5B69BB60FD
:10135C000D4B9B697B6014E00B4B5B691B0903F025
:10136C000103002B03D0084B5B69BB6009E0064B03
:10137C005B69DB0903F00103002B02D0024B502206
:10138C001A611037BD4680BD0054004080B582B054
:10139C0000AF184B5B687B60174B1B693B60174BAE
:1013AC005B693B60154B9B693B60134B5B693B6016
:1013BC00114B9B693B607B6803F02003002B16D01C
:1013CC007B6803F01003002B11D00A4A094BDB6831
:1013DC0043F02003D360074A064BDB6843F010034D
:1013EC00D360044B5B687B600448FFF72FFB083726
:1013FC00BD4680BD0060024000540040005C0040CF
:10140C0080B582B000AF174B5B687B60164B1B78C6
:10141C003B60164B5B693B60144B9B693B60134B09
:10142C001B693B607B6803F40063002B16D07B6860
:10143C0003F48063002B11D00A4A0A4BDB6843F497
:10144C000063D360074A074BDB6843F48063D360C7
:10145C00064B1B693B600648FFF7F8FA0837BD4698
:10146C0080BD00BF006002406404002000540040B6
:10147C00005C004080B483B000AF786002E07B6811
:10148C00013B7B607B68002BF9D10C37BD465DF8C6
:10149C00047B704780B584B000AF1020FFF7D6FCFA
:1014AC00022006213E4A0023FEF7A8FE0220072157
:1014BC003B4A0023FEF7A2FE02200821394A0023F2
:1014CC00FEF79CFE02200921374A0023FEF796FE08
:1014DC00364803210122FFF74BF835480121002241
:1014EC00FFF746F8334B1B6FFB60324BD3F8883059
:1014FC00BB60314B2D481946304A0523FFF722F8C3
:10150C002F4B2B4819462F4A0523FFF71BF8FFF7E3
:10151C00B7FE2D4810210022FFF768F9204806215C
:10152C000422FEF7C1FE1E4807210422FEF7BCFE72
:10153C001C4808210422FEF7D7FE1B48092104226F
:10154C00FEF7D2FE214A214B5B6843F400635360E3
:10155C001D4A1D4B5B6843F4006353601348FFF74F
:10156C0093F81348FFF790F81748FFF7C7F8174898
:10157C00FFF7C4F81548FFF7D1F9144810210022E1
:10158C000023FFF703FA114B5B697B600F4B9B69E0
:10159C007B600D4B5B693B600B4B9B693B60F2E7DF
:1015AC00000402400000024000080240706002404B
:1015BC00886002400060024014000020105C004073
:1015CC00640400201054004000540040005C0040B3
:1015DC0070B50F4E0F4D761BB61018BF002405D0FA
:1015EC00013455F8043B9847A642F9D10A4E0B4DED
:1015FC00761B00F0B7F8B61018BF002406D00134E3
:10160C0055F8043B9847A642F9D170BD70BD00BF98
:10161C0090170008901700089817000890170008FA
:10162C00024B13B1024800F005B8704700000000EF
:10163C004D160008014600200246034600F016B87D
:10164C0038B5084B084DED1AAC1018BFED1805D085
:10165C00013C55F8043D9847002CF9D1BDE83840C1
:10166C0000F086B8981700089C1700082DE9F04781
:10167C00254C2568D5F84841064688469246994639
:10168C00CCB360681F2818DC431C7EB104EB8005CA
:10169C000121C5F888A0D4F8887101FA00F217432B
:1016AC00022EC4F88871C5F808911ED00230636010
:1016BC0044F820800020BDE8F087144B03B34FF4AE
:1016CC00C870AFF300800446D0B1D5F8483100277C
:1016DC0080E88800C5F8484138460123C4F8887171
:1016EC00C4F88C71002EE1D0D0E7D4F88C110A43E9
:1016FC00C4F88C21DAE705F5A674C5F84841C0E7B3
:10170C004FF0FF30BDE8F0878C1700080000000098
:10171C00DFF834D0002103E00C4B5B58435004310C
:10172C000B480C4B42189A42F6D30B4A02E00023AA
:10173C0042F8043B094B9A42F9D3FFF739FCFFF707
:10174C0047FFFFF7A7FE7047FFFF02209C1700081A
:10175C00000000204804002048040020C804002099
:10176C00FEE70000F8B500BFF8BC08BC9E46704709
:0C177C00F8B500BFF8BC08BC9E467047E2
:081788004300000020000020D6
:081790002D160008D10100082C
:04179800AD01000897
:10179C000095BA0A000000000000000001020304DA
:1017AC000607080948454C4C4F000000000000009B
:1017BC00000000000C03002074030020DC03002058
:1017CC00000000000000000000000000000000000D
:1017DC0000000000000000000000000000000000FD
:1017EC000000000088170008000000000000000046
:1017FC0000000000000000000000000000000000DD
:10180C0000000000000000000000000000000000CC
:10181C0000000000000000000000000000000000BC
:10182C0000000000000000000000000000000000AC
:10183C00000000000000000000000000000000009C
:10184C00000000000000000000000000000000008C
:10185C00000000000000000001000000000000007B
:10186C000E33CDAB34126DE6ECDE05000B00000040
:10187C00000000000000000000000000000000005C
:10188C00000000000000000000000000000000004C
:10189C00000000000000000000000000000000003C
:1018AC00000000000000000000000000000000002C
:040000050800171DBB
:00000001FF
