:020000040800F2
:10000000FFFF0220DD1100082D1200082D1200084C
:100010002D1200082D1200082D120008000000000B
:100020000000000000000000000000002D12000889
:100030002D120008000000002D1200082D120008EB
:100040002D1200082D1200082D1200082D12000894
:100050002D1200082D1200082D1200082D12000884
:100060002D1200082D1200082D1200082D12000874
:100070002D1200082D1200082D120008550E000840
:10008000C90E00082D1200082D1200082D120008BC
:100090002D1200082D1200082D1200082D12000844
:1000A0002D1200082D1200082D1200082D12000834
:1000B0002D1200082D1200082D120008E50D000871
:1000C0002D1200082D1200082D1200082D12000814
:1000D0002D1200082D1200082D1200082D12000804
:1000E0002D1200082D1200082D1200082D120008F4
:1000F0002D1200082D1200082D1200082D120008E4
:100100002D1200082D1200082D1200082D120008D3
:100110002D1200082D1200082D1200082D120008C3
:100120002D1200082D1200082D1200082D120008B3
:100130002D1200082D1200082D1200082D120008A3
:100140002D1200082D1200082D1200082D12000893
:100150002D1200082D1200082D1200082D12000883
:100160002D1200082D1200082D1200082D12000873
:100170002D1200082D1200082D12000800000000AA
:100180002D1200082D1200082D1200082D12000853
:100190002D1200082D1200082D1200082D12000843
:0C01A0002D1200082D1200082D1200087E
:1001AC0010B5054C237833B9044B13B10448AFF3A5
:1001BC0000800123237010BD4004002000000000CB
:1001CC0030120008084B10B51BB108480849AFF3B2
:1001DC0000800848036803B910BD074B002BFBD007
:1001EC00BDE81040184700BF0000000030120008A6
:1001FC0044040020400400200000000080B584B0BE
:10020C0000AFF860B9607A603B60786800F06CFD14
:10021C007B681B68BA685200032101FA02F2D243D0
:10022C001A407B681A607B681B68BA685200F968D0
:10023C0001FA02F21A437B681A607B685B68012141
:10024C00BA6801FA02F21A437B685A607B689B68B1
:10025C00BA685200032101FA02F2D2431A407B68B9
:10026C009A607B689B68BA685200022101FA02F21C
:10027C001A437B689A607B68DB68BA68520003217A
:10028C0001FA02F2D2431A407B68DA607B68DB68C1
:10029C00BA685200396801FA02F21A437B68DA60D4
:1002AC001037BD4680BD00BF80B485B000AFF8608C
:1002BC00B9607A60FB681B6ABA6892000F2101FA78
:1002CC0002F2D2431A40FB681A62FB681B6ABA68D6
:1002DC009200796801FA02F21A43FB681A62143729
:1002EC00BD465DF8047B704780B485B000AFF86004
:1002FC00B9607A60FB685B6ABA68083A92000F21B1
:10030C0001FA02F2D2431A40FB685A62FB685B6A3C
:10031C00BA68083A9200796801FA02F21A43FB684B
:10032C005A621437BD465DF8047B704780B584B0C3
:10033C0000AFF860B9607A60B86800F0D5FCBB68B3
:10034C001B68FA685200032101FA02F2D2431A40E8
:10035C00BB681A60BB681A68BB681A60BB685B68CC
:10036C000121FA6801FA02F2D2431A40BB685A60C2
:10037C00BB689B68FA685200032101FA02F2D2436F
:10038C001A40BB689A60BB689B68FA6852000221ED
:10039C0001FA02F21A43BB689A60BB68DB68FA6820
:1003AC005200032101FA02F2D2431A40BB68DA6010
:1003BC00BB68DB68FA685200796801FA02F21A43EA
:1003CC00BB68DA601037BD4680BD00BF80B588B011
:1003DC0000AFF860B9607A6000F0E2FCFB681B6F5C
:1003EC0023F00102FB681A67FB681B6FFB61FB685B
:1003FC001B6F43F4413343F40073FA681367FB68D3
:10040C001B6FBB61FB681B6F23F0C062FB681A6734
:10041C00FB681B6FBA6852061A43FB681A67FB68C5
:10042C001B6F23F0C002FB681A67FB681B6F7A68AE
:10043C0092011A43FB681A67FB681B6F23F4C042D6
:10044C00FB681A67FB681A6FFB681A67FB681B6FFF
:10045C0023F4C052FB681A67FB681A6FFB681A67B3
:10046C00FB681B6F23F48062FB681A67FB681B6FC9
:10047C0043F48062FB681A67FB681B6F23F40072FD
:10048C00FB681A67FB681A6FFB681A67FB681B6FBF
:10049C0023F08072FB681A67FB681A6FFB681A6797
:1004AC00FB681B6F23F48002FB681A67FB681A6FEA
:1004BC00FB681A67FB681B6F7B61FB680022C3F843
:1004CC008420FB681B6F23F01E02FB681A67FB6815
:1004DC001B6F43F01E02FB681A67FB681B6F3B61C6
:1004EC002037BD4680BD00BF80B483B000AF7860BC
:1004FC007B681B6823F4C0627B681A607B681B688E
:10050C0043F4C0627B681A600C37BD465DF8047B0F
:10051C00704700BF80B487B000AFF860B9607A60F4
:10052C003B60FB687A689A67FB68BA68DA673A6876
:10053C00FB685A67FB681B6F7B611C37BD465DF817
:10054C00047B704780B485B000AFF860B9607A6006
:10055C003B60FB687A689A60FB68BA68DA603A6854
:10056C00FB685A601437BD465DF8047B704700BFCA
:10057C0080B588B000AFF860B9607A6000F010FC0C
:10058C00FB681B6823F00102FB681A60FB681B68A0
:10059C00FB61FB681B6843F4413343F40073FA6856
:1005AC001360FB681B68BB61FB681B6823F0C062AF
:1005BC00FB681A60FB681B68BA6852061A43FB6832
:1005CC001A60FB681B6823F0C002FB681A60FB68AA
:1005DC001B687A6892011A43FB681A60FB681B68F7
:1005EC0023F4C042FB681A60FB681A68FB681A6047
:1005FC00FB681B6823F4C052FB681A60FB681A681E
:10060C00FB681A60FB681B6823F48062FB681A6045
:10061C00FB681B6843F48062FB681A60FB681B680C
:10062C0023F40072FB681A60FB681A68FB681A6096
:10063C00FB681B6823F08072FB681A60FB681A6801
:10064C00FB681A60FB681B6823F48002FB681A6065
:10065C00FB681A68FB681A60FB681B687B61FB68A7
:10066C0000225A61FB681B6823F01E02FB681A60AB
:10067C00FB681B6843F01E02FB681A60FB681B6872
:10068C003B612037BD4680BD80B483B000AF78603D
:10069C007B681B6843F001027B681A600C37BD460F
:1006AC005DF8047B704700BF80B485B000AF786004
:1006BC0039607B685A683B6822FA03F303F0010344
:1006CC00FB600AE07B685A683B6822FA03F303F08C
:1006DC000103FB607B68DB68FB60FB68002BF1D0DF
:1006EC007B68DB6801213A6801FA02F21A437B68E5
:1006FC00DA601437BD465DF8047B704780B485B072
:10070C0000AF78607B681B6823F400427B681A603A
:10071C007B681B6823F080027B681A607B681B680F
:10072C00FB607B685B6823F03F027B685A607B68E8
:10073C005B6843F002027B685A607B68DB6923F4D8
:10074C0000427B68DA617B68DB6923F47F6323F00A
:10075C000F037A68D3617B68DB6943F480727B6832
:10076C00DA617B681B6A23F03F027B681A627B6844
:10077C001B6A43F002027B681A627B685B6A43F077
:10078C0010027B685A627B685B6A23F00F027B68FD
:10079C005A627B685B6A43F001027B685A627B6831
:1007AC001B6843F001027B681A607B681B6843F48A
:1007BC0080627B681A607B681B68FB607B689B6847
:1007CC00FB601437BD465DF8047B704780B483B082
:1007DC0000AF78607B685B6843F400627B685A60AA
:1007EC000C37BD465DF8047B704700BF80B487B002
:1007FC0000AFF860B9607A607B68002B11D0FB68A1
:10080C009B6843F40042FB689A60FB689B6823F486
:10081C007F7323F00303FA689360BA68FB689A60ED
:10082C0012E0FB689B6823F40042FB689A60FB684B
:10083C009B6823F0FE02FB689A60FB689B68BA68B1
:10084C0052001A43FB689A60FB689B687B611C37FB
:10085C00BD465DF8047B704780B489B000AF78600A
:10086C0039607B685A693B6822FA03F303F0010391
:10087C00FB617B685B69BB617B689B697B61064B39
:10088C005B693B61044B9B69FB60FB691846243731
:10089C00BD465DF8047B70470054004080B485B0C1
:1008AC0000AF786039607B689A693B6822FA03F381
:1008BC0003F00103FB607B689B69BB60FB68184617
:1008CC001437BD465DF8047B704700BF80B582B01D
:1008DC0000AF7860396000BF38680721FFF7BCFFB4
:1008EC000346002BF8D07A683B681A610837BD467E
:1008FC0080BD00BF80B582B000AF786000BF786863
:10090C000621FFF7A9FF0346002BF8D07B681B6973
:10091C00DBB218460837BD4680BD00BF80B582B03B
:10092C0000AF78607B681B6843F480727B681A6048
:10093C007B685B6843F400627B685A6000BF786830
:10094C000021FFF789FF0346002BF8D00837BD467E
:10095C0080BD00BF80B584B000AF786039603B6863
:10096C009B11FB60FB689B0043F0F103BB60BA6812
:10097C007B681A6100BF78680121FFF76DFF0346A1
:10098C00002BF8D01037BD4680BD00BF80B58CB0B1
:10099C0000AFF860B9607A603B607B68012B21D1B5
:1009AC00BB689B11FB62FB6A9B0043F0F003BB62CC
:1009BC00BB68DBB27B62BA6AFB681A6100BFF8687D
:1009CC000321FFF749FF0346002BF8D07A6AFB6836
:1009DC001A6100BFF8680121FFF73EFF0346002BA8
:1009EC00F8D01EE0BB685A003B6813433B62F868C2
:1009FC000121FFF731FF0346012B0FD1FB68692260
:100A0C001A61FB685B69FB61FB689B69BB61064B08
:100A1C005B697B61044B9B693B6102E03A6AFB6852
:100A2C001A613037BD4680BD0054004080B483B09D
:100A3C0000AF78607B681B6823F480627B681A6067
:100A4C000C37BD465DF8047B704700BF80B483B0A3
:100A5C0000AF78607B681B6843F400727B681A6097
:100A6C000C37BD465DF8047B704700BF80B500AF06
:100A7C00114A114B1B6843F0010313600E4B00220B
:100A8C009A600D4A0C4B1B6823F0847323F480335B
:100A9C001360094B094A5A60074A074B1B6823F439
:100AAC0080231360044B0022DA6000F087F8044BBB
:100ABC004FF000629A6080BD003802401030002474
:100ACC0000ED00E080B487B000AF00233B61002351
:100ADC007B610223FB600023BB6002237B60324BF3
:100AEC009B6803F00C033B613B69042B07D0082B7C
:100AFC0009D0002B3FD12D4B2D4A1A603FE02B4BD8
:100B0C002C4A1A603BE0284B5B6803F480039B0D76
:100B1C00BB60254B5B6803F03F037B60BB68002B1D
:100B2C000DD0244A7B68B2FBF3F21F4B596847F691
:100B3C00C0730B409B0903FB02F37B610CE01C4A66
:100B4C007B68B2FBF3F2184B596847F6C0730B4045
:100B5C009B0903FB02F37B61134B5B6803F440338B
:100B6C001B0C01335B00FB607A69FB68B2FBF3F38F
:100B7C000E4A136003E00D4B0D4A1A6000BF0A4B7E
:100B8C009B6803F0F0031B090B4AD35CDBB23B619F
:100B9C00064B1A683B6922FA03F3044A13601C37AC
:100BAC00BD465DF8047B7047003802400000002011
:100BBC000024F40000127A000400002080B483B0FA
:100BCC0000AF00237B6000233B60434A424B1B6811
:100BDC0043F480331360404B1B6803F400333B60D9
:100BEC007B6801337B603B68002B04D17B6841F24E
:100BFC0088329342EFD1384B1B6803F40033002B3F
:100C0C0002D001233B6001E000233B603B68012BD9
:100C1C005CD1314A304B1B6C43F0805313642F4A28
:100C2C002E4B1B6843F4404313602B4A2A4B9B68A2
:100C3C009360294A284B9B6843F400439360264AEF
:100C4C00254B9B6843F4A0539360234B244A5A6072
:100C5C00214A214B1B6843F08073136000BF1E4B6D
:100C6C001B6803F00073002BF9D01C4A1B4B1B684C
:100C7C0043F48033136000BF184B5B6803F480337C
:100C8C00002BF9D0154A154B1B6843F40033136045
:100C9C0000BF124B5B6803F40033002BF9D0114BEF
:100CAC0040F205721A600C4A0B4B9B6823F003034D
:100CBC009360094A084B9B6843F00203936000BFA2
:100CCC00054B9B6803F00C03082BF9D10C37BD4680
:100CDC005DF8047B704700BF003802400070004094
:100CEC00085A4007003C024080B485B000AF7860E1
:100CFC007B6803F13F4303F57E03002B01DA03F21B
:100D0C00FF339B12FB600C490B4B1B690120FA68EB
:100D1C0000FA02F2D24313400B610749064B1B6BDE
:100D2C000120FA6800FA02F213430B631437BD4634
:100D3C005DF8047B704700BF0038024080B483B07C
:100D4C0000AF164A154B1B6A23F400131362134AA7
:100D5C00124B1B6C43F400131364104A0F4B1B6AA9
:100D6C0023F4800313620D4A0C4B1B6C43F4800379
:100D7C0013640A4A094B1B6A23F400031362074AE3
:100D8C00064B1B6C43F400031364044B1B6C7B601D
:100D9C000C37BD465DF8047B704700BF003802403D
:100DAC0080B483B000AF0B4A0A4B1B6923F40013C9
:100DBC001361084B1B697B60064A064B1B6B43F4A3
:100DCC0000131363034B1B6B3B600C37BD465DF884
:100DDC00047B70470038024080B584B000AF194BDB
:100DEC005B699B0903F00103002B05D01548FFF745
:100DFC0081FD0346FB6022E0124B5B695B0803F04C
:100E0C000103002B06D00F4B5B69BB600D4B9B693C
:100E1C007B6014E00B4B5B691B0903F00103002B97
:100E2C0003D0084B5B69BB6009E0064B5B69DB09CF
:100E3C0003F00103002B02D0024B50221A61103731
:100E4C00BD4680BD0054004080B483B000AF184B49
:100E5C005B687B60174B1B693B60174B5B693B60A6
:100E6C00154B9B693B60134B5B693B60114B9B695A
:100E7C003B607B6803F02003002B13D07B6803F0EE
:100E8C001003002B0ED00A4A094BDB6843F02003F9
:100E9C00D360074A064BDB6843F01003D360044B66
:100EAC005B687B600C37BD465DF8047B704700BF08
:100EBC000060024000540040005C004080B483B0ED
:100ECC0000AF164B5B687B60154B1B783B60154B7A
:100EDC005B693B60134B9B693B60124B1B693B602E
:100EEC007B6803F40063002B13D07B6803F48063EE
:100EFC00002B0ED0094A094BDB6843F40063D36026
:100F0C00064A064BDB6843F48063D360054B1B69D0
:100F1C003B600C37BD465DF8047B704700600240B7
:100F2C005C0400200054004080B483B000AF7860B3
:100F3C0002E07B68013B7B607B68002BF9D10C37AE
:100F4C00BD465DF8047B704780B586B000AF0220CB
:100F5C000621434A0023FFF751F902200721404A9A
:100F6C000023FFF74BF9022008213E4A0023FFF72C
:100F7C0045F9022009213C4A0023FFF73FF93B4881
:100F8C0003210122FFF7F4FA394801210022FFF76F
:100F9C00EFFA384B1B6F7B61364BD3F888303B61D3
:100FAC003248FFF7A1FA3248FFF79EFA324B2F482E
:100FBC001946324A0323FFF7C5FA314B2C48194620
:100FCC00304A0323FFF7BEFAFFF7B8FE2E48102174
:100FDC000022FFF70BFC224806210422FFF764F9DC
:100FEC001F4807210422FFF75FF91E48082104223D
:100FFC00FFF77AF91C4809210422FFF775F9234AF7
:10100C00224B5B6843F4006353601F4A1E4B5B68C2
:10101C0043F4006353601548FFF736FB1448FFF7A1
:10102C0033FB1948FFF76AFB1848FFF767FB1748B3
:10103C00FFF774FC1548102100220023FFF7A6FCD3
:10104C00124B5B69FB60114B9B69FB600E4B5B6940
:10105C00BB600D4B9B69BB600B4B1B697B60EFE767
:10106C000004024000000240000802407060024090
:10107C00886002400060024014000020105C0040B8
:10108C005C0400201054004000540040005C004000
:10109C0070B50F4E0F4D761BB61018BF002405D03F
:1010AC00013455F8043B9847A642F9D10A4E0B4D32
:1010BC00761B00F0B7F8B61018BF002406D0013428
:1010CC0055F8043B9847A642F9D170BD70BD00BFDE
:1010DC005012000850120008581200085012000854
:1010EC00024B13B1024800F005B870470000000035
:1010FC000D110008014600200246034600F016B808
:10110C0038B5084B084DED1AAC1018BFED1805D0CA
:10111C00013C55F8043D9847002CF9D1BDE8384006
:10112C0000F086B8581200085C1200082DE9F04750
:10113C00254C2568D5F8484106468846924699467E
:10114C00CCB360681F2818DC431C7EB104EB80050F
:10115C000121C5F888A0D4F8887101FA00F2174370
:10116C00022EC4F88871C5F808911ED00230636055
:10117C0044F820800020BDE8F087144B03B34FF4F3
:10118C00C870AFF300800446D0B1D5F848310027C1
:10119C0080E88800C5F8484138460123C4F88871B6
:1011AC00C4F88C71002EE1D0D0E7D4F88C110A432E
:1011BC00C4F88C21DAE705F5A674C5F84841C0E7F8
:1011CC004FF0FF30BDE8F0874C1200080000000023
:1011DC00DFF834D0002103E00C4B5B584350043152
:1011EC000B480C4B42189A42F6D30B4A02E00023F0
:1011FC0042F8043B094B9A42F9D3FFF737FCFFF74F
:10120C0047FFFFF7A1FE7047FFFF02205C120008AA
:10121C00000000204004002040040020C0040020F6
:10122C00FEE70000F8B500BFF8BC08BC9E4670474E
:0C123C00F8B500BFF8BC08BC9E46704727
:08124800430000001800002023
:08125000ED100008D1010008B7
:04125800AD010008DC
:10125C000095BA0A0000000000000000010203041F
:10126C000607080941424300000000000403002067
:10127C006C030020D40300200000000000000000DC
:10128C000000000000000000000000000000000052
:10129C0000000000000000000000000048120008E0
:1012AC000000000000000000000000000000000032
:1012BC000000000000000000000000000000000022
:1012CC000000000000000000000000000000000012
:1012DC000000000000000000000000000000000002
:1012EC0000000000000000000000000000000000F2
:1012FC0000000000000000000000000000000000E2
:10130C0000000000000000000000000000000000D1
:10131C0001000000000000000E33CDAB34126DE66E
:10132C00ECDE05000B0000000000000000000000D7
:10133C0000000000000000000000000000000000A1
:10134C000000000000000000000000000000000091
:10135C000000000000000000000000000000000081
:10136C000000000000000000000000000000000071
:04000005080011DD01
:00000001FF
